{
  "transactions": [
    {
      "hash": "0xf9e0f5c552fdf5ae997abf879875b40ed1b810a2f7643ecf4802de15dab2e74e",
      "transactionType": "CALL",
      "contractName": null,
      "contractAddress": "0x610178da211fef7d417bc0e6fed39f05609ad788",
      "function": "call(bytes,bytes)",
      "arguments": [
        "0x0000000000000000000000000b306bf915c4d645ff596e518faf3f9669b97016",
        "0xe04d4f970000000000000000000000000000000000000000000000000000000000000060000000000000000000000000000000000000000000000000000000000000002a0000000000000000000000000000000000000000000000000000000000000001000000000000000000000000000000000000000000000000000000000000000648656c6c6f210000000000000000000000000000000000000000000000000000"
      ],
      "transaction": {
        "from": "0x70997970c51812dc3a010c7d01b50e0d17dc79c8",
        "to": "0x610178da211fef7d417bc0e6fed39f05609ad788",
        "gas": "0xc049",
        "value": "0x0",
        "input": "0x0ac7c44c0000000000000000000000000000000000000000000000000000000000000040000000000000000000000000000000000000000000000000000000000000008000000000000000000000000000000000000000000000000000000000000000200000000000000000000000000b306bf915c4d645ff596e518faf3f9669b9701600000000000000000000000000000000000000000000000000000000000000a4e04d4f970000000000000000000000000000000000000000000000000000000000000060000000000000000000000000000000000000000000000000000000000000002a0000000000000000000000000000000000000000000000000000000000000001000000000000000000000000000000000000000000000000000000000000000648656c6c6f21000000000000000000000000000000000000000000000000000000000000000000000000000000000000000000000000000000000000",
        "nonce": "0x1",
        "chainId": "0x7a69"
      },
      "additionalContracts": [],
      "isFixedGasLimit": false
    }
  ],
  "receipts": [
    {
      "status": "0x1",
      "cumulativeGasUsed": "0x8b37",
      "logs": [
        {
          "address": "0x610178da211fef7d417bc0e6fed39f05609ad788",
          "topics": [
            "0x2b5af078ce280d812dc2241658dc5435c93408020e5418eef55a2b536de51c0f",
            "0x00000000000000000000000070997970c51812dc3a010c7d01b50e0d17dc79c8"
          ],
          "data": "0x0000000000000000000000000000000000000000000000000000000000000040000000000000000000000000000000000000000000000000000000000000008000000000000000000000000000000000000000000000000000000000000000200000000000000000000000000b306bf915c4d645ff596e518faf3f9669b9701600000000000000000000000000000000000000000000000000000000000000a4e04d4f970000000000000000000000000000000000000000000000000000000000000060000000000000000000000000000000000000000000000000000000000000002a0000000000000000000000000000000000000000000000000000000000000001000000000000000000000000000000000000000000000000000000000000000648656c6c6f21000000000000000000000000000000000000000000000000000000000000000000000000000000000000000000000000000000000000",
          "blockHash": "0x1a3f7a810b5224b6759615a2b4216003d3dd1f538ebe3b9da94aa75f6701387f",
          "blockNumber": "0x1f",
          "blockTimestamp": "0x66a3c9ff",
          "transactionHash": "0xf9e0f5c552fdf5ae997abf879875b40ed1b810a2f7643ecf4802de15dab2e74e",
          "transactionIndex": "0x0",
          "logIndex": "0x0",
          "removed": false
        }
      ],
      "logsBloom": "0x00000000000000000002008000000000000000000000000000000000000000000000000000000400000000000000000000000000000000000000000000000000000000000000000000000000000000000000000000000002002000020000000000000800000000000000000000000000000000000000000040000000000000000000000000000000000000000000000000000000000000000000000000000000000000000000000000000000000000000000000000000000000000000000000000000000000000000000000000000000000000000000000000000000000000000000000000000000000000000000000001000000000000000000000000000000",
      "type": "0x2",
      "transactionHash": "0xf9e0f5c552fdf5ae997abf879875b40ed1b810a2f7643ecf4802de15dab2e74e",
      "transactionIndex": "0x0",
      "blockHash": "0x1a3f7a810b5224b6759615a2b4216003d3dd1f538ebe3b9da94aa75f6701387f",
      "blockNumber": "0x1f",
      "gasUsed": "0x8b37",
      "effectiveGasPrice": "0x2525d2b65",
      "blobGasPrice": "0x1",
      "from": "0x70997970c51812dc3a010c7d01b50e0d17dc79c8",
      "to": "0x610178da211fef7d417bc0e6fed39f05609ad788",
      "contractAddress": null,
      "root": "0x7095a25bfd1ebc4dff2d917744f3e326fe14a52b47530d3bdbf4d8b6d11d762a"
    }
  ],
  "libraries": [],
  "pending": [],
  "returns": {},
  "timestamp": 1722010111,
  "chain": 31337,
  "commit": "20f080c"
}