{
  "transactions": [
    {
      "hash": "0x7db546c0e9ad43ae1823addd6334733493b606386188d3710d858fecbaaa4138",
      "transactionType": "CALL",
      "contractName": null,
      "contractAddress": "0x610178da211fef7d417bc0e6fed39f05609ad788",
      "function": "call(bytes,bytes)",
      "arguments": [
        "0x0b306bf915c4d645ff596e518faf3f9669b97016",
        "0xe04d4f970000000000000000000000000000000000000000000000000000000000000060000000000000000000000000000000000000000000000000000000000000002a0000000000000000000000000000000000000000000000000000000000000001000000000000000000000000000000000000000000000000000000000000000648656c6c6f210000000000000000000000000000000000000000000000000000"
      ],
      "transaction": {
        "from": "0xf39fd6e51aad88f6f4ce6ab8827279cfffb92266",
        "to": "0x610178da211fef7d417bc0e6fed39f05609ad788",
        "gas": "0xc049",
        "value": "0x0",
        "input": "0x0ac7c44c0000000000000000000000000000000000000000000000000000000000000040000000000000000000000000000000000000000000000000000000000000008000000000000000000000000000000000000000000000000000000000000000140b306bf915c4d645ff596e518faf3f9669b9701600000000000000000000000000000000000000000000000000000000000000000000000000000000000000a4e04d4f970000000000000000000000000000000000000000000000000000000000000060000000000000000000000000000000000000000000000000000000000000002a0000000000000000000000000000000000000000000000000000000000000001000000000000000000000000000000000000000000000000000000000000000648656c6c6f21000000000000000000000000000000000000000000000000000000000000000000000000000000000000000000000000000000000000",
        "nonce": "0x1b",
        "chainId": "0x7a69"
      },
      "additionalContracts": [],
      "isFixedGasLimit": false
    }
  ],
  "receipts": [
    {
      "status": "0x1",
      "cumulativeGasUsed": "0x8b37",
      "logs": [
        {
          "address": "0x610178da211fef7d417bc0e6fed39f05609ad788",
          "topics": [
            "0x2b5af078ce280d812dc2241658dc5435c93408020e5418eef55a2b536de51c0f",
            "0x000000000000000000000000f39fd6e51aad88f6f4ce6ab8827279cfffb92266"
          ],
          "data": "0x0000000000000000000000000000000000000000000000000000000000000040000000000000000000000000000000000000000000000000000000000000008000000000000000000000000000000000000000000000000000000000000000140b306bf915c4d645ff596e518faf3f9669b9701600000000000000000000000000000000000000000000000000000000000000000000000000000000000000a4e04d4f970000000000000000000000000000000000000000000000000000000000000060000000000000000000000000000000000000000000000000000000000000002a0000000000000000000000000000000000000000000000000000000000000001000000000000000000000000000000000000000000000000000000000000000648656c6c6f21000000000000000000000000000000000000000000000000000000000000000000000000000000000000000000000000000000000000",
          "blockHash": "0xc537bd6830eba3cfe84470cf7bdcd56adaf5ba044ea4f969901f8a470f9041d7",
          "blockNumber": "0x21",
          "blockTimestamp": "0x66a3ef27",
          "transactionHash": "0x7db546c0e9ad43ae1823addd6334733493b606386188d3710d858fecbaaa4138",
          "transactionIndex": "0x0",
          "logIndex": "0x0",
          "removed": false
        }
      ],
      "logsBloom": "0x00000000000000000000008000000000000000000000000000000000000000000000000000000400000000000000000000000000000000000000000000000000000000000000000000000000000000000000000000000002002000020000000000000000000000000000000100000000000000000000000040000000000000000000000000000000000000000000000000000000000000000000000000000000000000000000000000000000000000000000000000000000000000000000000000000000000000200000000000000000000000002000000000000000000000000000000000000000000000000000000000000000000000000000000000000000",
      "type": "0x2",
      "transactionHash": "0x7db546c0e9ad43ae1823addd6334733493b606386188d3710d858fecbaaa4138",
      "transactionIndex": "0x0",
      "blockHash": "0xc537bd6830eba3cfe84470cf7bdcd56adaf5ba044ea4f969901f8a470f9041d7",
      "blockNumber": "0x21",
      "gasUsed": "0x8b37",
      "effectiveGasPrice": "0x25270b3c8",
      "blobGasPrice": "0x1",
      "from": "0xf39fd6e51aad88f6f4ce6ab8827279cfffb92266",
      "to": "0x610178da211fef7d417bc0e6fed39f05609ad788",
      "contractAddress": null,
      "root": "0x082daded8e1e85c9233ba3ed91dbcf4c6a91af89151a498fce5e7d60f6229400"
    }
  ],
  "libraries": [],
  "pending": [],
  "returns": {},
  "timestamp": 1722019617,
  "chain": 31337,
  "commit": "20f080c"
}