{
  "transactions": [
    {
      "hash": "0x950c6cd79b1d12ce2c83f5f1eac8a3f47ba1952bf96a0cfe931f46a80698d2f3",
      "transactionType": "CALL",
      "contractName": null,
      "contractAddress": "0x610178da211fef7d417bc0e6fed39f05609ad788",
      "function": "call(bytes,bytes)",
      "arguments": [
        "0x0000000000000000000000000b306bf915c4d645ff596e518faf3f9669b97016",
        "0xe04d4f970000000000000000000000000000000000000000000000000000000000000060000000000000000000000000000000000000000000000000000000000000002a0000000000000000000000000000000000000000000000000000000000000001000000000000000000000000000000000000000000000000000000000000000648656c6c6f210000000000000000000000000000000000000000000000000000"
      ],
      "transaction": {
        "from": "0x70997970c51812dc3a010c7d01b50e0d17dc79c8",
        "to": "0x610178da211fef7d417bc0e6fed39f05609ad788",
        "gas": "0xc049",
        "value": "0x0",
        "input": "0x0ac7c44c0000000000000000000000000000000000000000000000000000000000000040000000000000000000000000000000000000000000000000000000000000008000000000000000000000000000000000000000000000000000000000000000200000000000000000000000000b306bf915c4d645ff596e518faf3f9669b9701600000000000000000000000000000000000000000000000000000000000000a4e04d4f970000000000000000000000000000000000000000000000000000000000000060000000000000000000000000000000000000000000000000000000000000002a0000000000000000000000000000000000000000000000000000000000000001000000000000000000000000000000000000000000000000000000000000000648656c6c6f21000000000000000000000000000000000000000000000000000000000000000000000000000000000000000000000000000000000000",
        "nonce": "0x0",
        "chainId": "0x7a69"
      },
      "additionalContracts": [],
      "isFixedGasLimit": false
    }
  ],
  "receipts": [
    {
      "status": "0x1",
      "cumulativeGasUsed": "0x8b37",
      "logs": [
        {
          "address": "0x610178da211fef7d417bc0e6fed39f05609ad788",
          "topics": [
            "0x2b5af078ce280d812dc2241658dc5435c93408020e5418eef55a2b536de51c0f",
            "0x00000000000000000000000070997970c51812dc3a010c7d01b50e0d17dc79c8"
          ],
          "data": "0x0000000000000000000000000000000000000000000000000000000000000040000000000000000000000000000000000000000000000000000000000000008000000000000000000000000000000000000000000000000000000000000000200000000000000000000000000b306bf915c4d645ff596e518faf3f9669b9701600000000000000000000000000000000000000000000000000000000000000a4e04d4f970000000000000000000000000000000000000000000000000000000000000060000000000000000000000000000000000000000000000000000000000000002a0000000000000000000000000000000000000000000000000000000000000001000000000000000000000000000000000000000000000000000000000000000648656c6c6f21000000000000000000000000000000000000000000000000000000000000000000000000000000000000000000000000000000000000",
          "blockHash": "0x42ff6817a022620dabb8ffbee9caa1cbf280c17e648c716e5bf4071910a1a212",
          "blockNumber": "0x1d",
          "blockTimestamp": "0x66a3d130",
          "transactionHash": "0x950c6cd79b1d12ce2c83f5f1eac8a3f47ba1952bf96a0cfe931f46a80698d2f3",
          "transactionIndex": "0x0",
          "logIndex": "0x0",
          "removed": false
        }
      ],
      "logsBloom": "0x00000000000000000002008000000000000000000000000000000000000000000000000000000400000000000000000000000000000000000000000000000000000000000000000000000000000000000000000000000002002000020000000000000800000000000000000000000000000000000000000040000000000000000000000000000000000000000000000000000000000000000000000000000000000000000000000000000000000000000000000000000000000000000000000000000000000000000000000000000000000000000000000000000000000000000000000000000000000000000000000001000000000000000000000000000000",
      "type": "0x2",
      "transactionHash": "0x950c6cd79b1d12ce2c83f5f1eac8a3f47ba1952bf96a0cfe931f46a80698d2f3",
      "transactionIndex": "0x0",
      "blockHash": "0x42ff6817a022620dabb8ffbee9caa1cbf280c17e648c716e5bf4071910a1a212",
      "blockNumber": "0x1d",
      "gasUsed": "0x8b37",
      "effectiveGasPrice": "0x252530692",
      "blobGasPrice": "0x1",
      "from": "0x70997970c51812dc3a010c7d01b50e0d17dc79c8",
      "to": "0x610178da211fef7d417bc0e6fed39f05609ad788",
      "contractAddress": null,
      "root": "0x5dcb8f26fe49de55affc2b410441c4cf0b3ee143318be721da7af603ebf043c5"
    }
  ],
  "libraries": [],
  "pending": [],
  "returns": {},
  "timestamp": 1722011932,
  "chain": 31337,
  "commit": "20f080c"
}