{
  "transactions": [
    {
      "hash": "0x05025e188ebf66c803baf912397af9a325cc6b87b2d12db87bf257b1ff084f31",
      "transactionType": "CALL",
      "contractName": null,
      "contractAddress": "0x610178da211fef7d417bc0e6fed39f05609ad788",
      "function": "call(bytes,bytes)",
      "arguments": [
        "0x0000000000000000000000000b306bf915c4d645ff596e518faf3f9669b97016",
        "0xe04d4f970000000000000000000000000000000000000000000000000000000000000060000000000000000000000000000000000000000000000000000000000000002a0000000000000000000000000000000000000000000000000000000000000001000000000000000000000000000000000000000000000000000000000000000648656c6c6f210000000000000000000000000000000000000000000000000000"
      ],
      "transaction": {
        "from": "0xf39fd6e51aad88f6f4ce6ab8827279cfffb92266",
        "to": "0x610178da211fef7d417bc0e6fed39f05609ad788",
        "gas": "0xc049",
        "value": "0x0",
        "input": "0x0ac7c44c0000000000000000000000000000000000000000000000000000000000000040000000000000000000000000000000000000000000000000000000000000008000000000000000000000000000000000000000000000000000000000000000200000000000000000000000000b306bf915c4d645ff596e518faf3f9669b9701600000000000000000000000000000000000000000000000000000000000000a4e04d4f970000000000000000000000000000000000000000000000000000000000000060000000000000000000000000000000000000000000000000000000000000002a0000000000000000000000000000000000000000000000000000000000000001000000000000000000000000000000000000000000000000000000000000000648656c6c6f21000000000000000000000000000000000000000000000000000000000000000000000000000000000000000000000000000000000000",
        "nonce": "0x1a",
        "chainId": "0x7a69"
      },
      "additionalContracts": [],
      "isFixedGasLimit": false
    }
  ],
  "receipts": [
    {
      "status": "0x1",
      "cumulativeGasUsed": "0x8b37",
      "logs": [
        {
          "address": "0x610178da211fef7d417bc0e6fed39f05609ad788",
          "topics": [
            "0x2b5af078ce280d812dc2241658dc5435c93408020e5418eef55a2b536de51c0f",
            "0x000000000000000000000000f39fd6e51aad88f6f4ce6ab8827279cfffb92266"
          ],
          "data": "0x0000000000000000000000000000000000000000000000000000000000000040000000000000000000000000000000000000000000000000000000000000008000000000000000000000000000000000000000000000000000000000000000200000000000000000000000000b306bf915c4d645ff596e518faf3f9669b9701600000000000000000000000000000000000000000000000000000000000000a4e04d4f970000000000000000000000000000000000000000000000000000000000000060000000000000000000000000000000000000000000000000000000000000002a0000000000000000000000000000000000000000000000000000000000000001000000000000000000000000000000000000000000000000000000000000000648656c6c6f21000000000000000000000000000000000000000000000000000000000000000000000000000000000000000000000000000000000000",
          "blockHash": "0xf685c78e8f2cea4ac88e1afdcedee9b168e3cd0aa8051e62f8ee24bba8238af9",
          "blockNumber": "0x23",
          "blockTimestamp": "0x66a3cb3a",
          "transactionHash": "0x05025e188ebf66c803baf912397af9a325cc6b87b2d12db87bf257b1ff084f31",
          "transactionIndex": "0x0",
          "logIndex": "0x0",
          "removed": false
        }
      ],
      "logsBloom": "0x00000000000000000000008000000000000000000000000000000000000000000000000000000400000000000000000000000000000000000000000000000000000000000000000000000000000000000000000000000002002000020000000000000000000000000000000100000000000000000000000040000000000000000000000000000000000000000000000000000000000000000000000000000000000000000000000000000000000000000000000000000000000000000000000000000000000000200000000000000000000000002000000000000000000000000000000000000000000000000000000000000000000000000000000000000000",
      "type": "0x2",
      "transactionHash": "0x05025e188ebf66c803baf912397af9a325cc6b87b2d12db87bf257b1ff084f31",
      "transactionIndex": "0x0",
      "blockHash": "0xf685c78e8f2cea4ac88e1afdcedee9b168e3cd0aa8051e62f8ee24bba8238af9",
      "blockNumber": "0x23",
      "gasUsed": "0x8b37",
      "effectiveGasPrice": "0x252895993",
      "blobGasPrice": "0x1",
      "from": "0xf39fd6e51aad88f6f4ce6ab8827279cfffb92266",
      "to": "0x610178da211fef7d417bc0e6fed39f05609ad788",
      "contractAddress": null,
      "root": "0xa9b6f4e112fd9d180618dba0760eab6df30327276c6c29bb3337a6a8d490dd5d"
    }
  ],
  "libraries": [],
  "pending": [],
  "returns": {},
  "timestamp": 1722010426,
  "chain": 31337,
  "commit": "20f080c"
}