{
  "transactions": [
    {
      "hash": "0x8302d86a2b50c50201ce88784cb5d3e3cb57a79136abefc2742b01bb054f6545",
      "transactionType": "CALL",
      "contractName": null,
      "contractAddress": "0x9a676e781a523b5d0c0e43731313a708cb607508",
      "function": "approve(address,uint256)",
      "arguments": [
        "0x9fE46736679d2D9a65F0992F2272dE9f3c7fa6e0",
        "1"
      ],
      "transaction": {
        "from": "0xf39fd6e51aad88f6f4ce6ab8827279cfffb92266",
        "to": "0x9a676e781a523b5d0c0e43731313a708cb607508",
        "gas": "0xf99a",
        "value": "0x0",
        "input": "0x095ea7b30000000000000000000000009fe46736679d2d9a65f0992f2272de9f3c7fa6e00000000000000000000000000000000000000000000000000000000000000001",
        "nonce": "0x17",
        "chainId": "0x7a69"
      },
      "additionalContracts": [],
      "isFixedGasLimit": false
    },
    {
      "hash": "0x8518662f597564de677ab168dac802d86e4fd13f01e0b8974d849256b7519882",
      "transactionType": "CALL",
      "contractName": null,
      "contractAddress": "0x9fe46736679d2d9a65f0992f2272de9f3c7fa6e0",
      "function": "depositAndCall(address,uint256,address,bytes)",
      "arguments": [
        "0x68B1D87F95878fE05B998F19b66F4baba5De1aed",
        "1",
        "0x9A676e781A523b5d0C0e43731313A708CB607508",
        "0x0000000000000000000000000000000000000000000000000000000000000020000000000000000000000000000000000000000000000000000000000000000568656c6c6f000000000000000000000000000000000000000000000000000000"
      ],
      "transaction": {
        "from": "0xf39fd6e51aad88f6f4ce6ab8827279cfffb92266",
        "to": "0x9fe46736679d2d9a65f0992f2272de9f3c7fa6e0",
        "gas": "0x122be",
        "value": "0x0",
        "input": "0x8c6f037f00000000000000000000000068b1d87f95878fe05b998f19b66f4baba5de1aed00000000000000000000000000000000000000000000000000000000000000010000000000000000000000009a676e781a523b5d0c0e43731313a708cb607508000000000000000000000000000000000000000000000000000000000000008000000000000000000000000000000000000000000000000000000000000000600000000000000000000000000000000000000000000000000000000000000020000000000000000000000000000000000000000000000000000000000000000568656c6c6f000000000000000000000000000000000000000000000000000000",
        "nonce": "0x18",
        "chainId": "0x7a69"
      },
      "additionalContracts": [],
      "isFixedGasLimit": false
    }
  ],
  "receipts": [
    {
      "status": "0x1",
      "cumulativeGasUsed": "0xb4b6",
      "logs": [
        {
          "address": "0x9a676e781a523b5d0c0e43731313a708cb607508",
          "topics": [
            "0x8c5be1e5ebec7d5bd14f71427d1e84f3dd0314c0f7b2291e5b200ac8c7c3b925",
            "0x000000000000000000000000f39fd6e51aad88f6f4ce6ab8827279cfffb92266",
            "0x0000000000000000000000009fe46736679d2d9a65f0992f2272de9f3c7fa6e0"
          ],
          "data": "0x0000000000000000000000000000000000000000000000000000000000000001",
          "blockHash": "0x0ea2a678ad5045f520c4cd44f21dec9cd9953a42a4b026867edc84888d8a1857",
          "blockNumber": "0x1d",
          "blockTimestamp": "0x66a3f6dc",
          "transactionHash": "0x8302d86a2b50c50201ce88784cb5d3e3cb57a79136abefc2742b01bb054f6545",
          "transactionIndex": "0x0",
          "logIndex": "0x0",
          "removed": false
        }
      ],
      "logsBloom": "0x00000000000080000000000000000000000000000000000000000000000000000000000000000000000400000000001000400000000000000000000000200000000000000000000000000000000000000000000000000000000000000000400000000000000000000000000100000000000000000000000000000000000000000000000000000000000000000000000000000000000000000000000000000000020000000000000000000000800000000000000000000000000000000000000000000000000000200000000000000000000000002000000000000000000000000010000000000000000000000000000000000000000000000000000000000000",
      "type": "0x2",
      "transactionHash": "0x8302d86a2b50c50201ce88784cb5d3e3cb57a79136abefc2742b01bb054f6545",
      "transactionIndex": "0x0",
      "blockHash": "0x0ea2a678ad5045f520c4cd44f21dec9cd9953a42a4b026867edc84888d8a1857",
      "blockNumber": "0x1d",
      "gasUsed": "0xb4b6",
      "effectiveGasPrice": "0x25252c4a4",
      "blobGasPrice": "0x1",
      "from": "0xf39fd6e51aad88f6f4ce6ab8827279cfffb92266",
      "to": "0x9a676e781a523b5d0c0e43731313a708cb607508",
      "contractAddress": null,
      "root": "0x8cbf21bf3624068e6c5f00e0ddb68c6d9b63129b7138ccd23cc6d7eabf5b844b"
    },
    {
      "status": "0x1",
      "cumulativeGasUsed": "0xd27f",
      "logs": [
        {
          "address": "0x9a676e781a523b5d0c0e43731313a708cb607508",
          "topics": [
            "0xddf252ad1be2c89b69c2b068fc378daa952ba7f163c4a11628f55a4df523b3ef",
            "0x000000000000000000000000f39fd6e51aad88f6f4ce6ab8827279cfffb92266",
            "0x000000000000000000000000dc64a140aa3e981100a9beca4e685f962f0cf6c9"
          ],
          "data": "0x0000000000000000000000000000000000000000000000000000000000000001",
          "blockHash": "0xb863b109cb274ac108abd8cc3bdc11150360efd5f5fb37638165c695819ca5c9",
          "blockNumber": "0x1e",
          "blockTimestamp": "0x66a3f6dd",
          "transactionHash": "0x8518662f597564de677ab168dac802d86e4fd13f01e0b8974d849256b7519882",
          "transactionIndex": "0x0",
          "logIndex": "0x0",
          "removed": false
        },
        {
          "address": "0x9fe46736679d2d9a65f0992f2272de9f3c7fa6e0",
          "topics": [
            "0x2103daedac6c1eee9e5bfbd02064d751c9ec3c03fb9bc3e4f94ca41afa38c1a4",
            "0x000000000000000000000000f39fd6e51aad88f6f4ce6ab8827279cfffb92266",
            "0x00000000000000000000000068b1d87f95878fe05b998f19b66f4baba5de1aed"
          ],
          "data": "0x00000000000000000000000000000000000000000000000000000000000000010000000000000000000000009a676e781a523b5d0c0e43731313a708cb607508000000000000000000000000000000000000000000000000000000000000006000000000000000000000000000000000000000000000000000000000000000600000000000000000000000000000000000000000000000000000000000000020000000000000000000000000000000000000000000000000000000000000000568656c6c6f000000000000000000000000000000000000000000000000000000",
          "blockHash": "0xb863b109cb274ac108abd8cc3bdc11150360efd5f5fb37638165c695819ca5c9",
          "blockNumber": "0x1e",
          "blockTimestamp": "0x66a3f6dd",
          "transactionHash": "0x8518662f597564de677ab168dac802d86e4fd13f01e0b8974d849256b7519882",
          "transactionIndex": "0x0",
          "logIndex": "0x1",
          "removed": false
        }
      ],
      "logsBloom": "0x00000000000080000000000000000000000000000000000000000000000000000000000000000000400000000000001000000010000040200000000000000000000000000000000000000008000000000000000000000001000000000000000000000000000000000000000100000000000000000000000000000010040000000000000000000000000000000000000000000000000000000000000000000000000000000000000000000000880010000000000000000000200000000000000000000002000000200000000000000000000000002000000000000000000000000000000000000001000000000000000000000000000000420000000000000000",
      "type": "0x2",
      "transactionHash": "0x8518662f597564de677ab168dac802d86e4fd13f01e0b8974d849256b7519882",
      "transactionIndex": "0x0",
      "blockHash": "0xb863b109cb274ac108abd8cc3bdc11150360efd5f5fb37638165c695819ca5c9",
      "blockNumber": "0x1e",
      "gasUsed": "0xd27f",
      "effectiveGasPrice": "0x2521f9d82",
      "blobGasPrice": "0x1",
      "from": "0xf39fd6e51aad88f6f4ce6ab8827279cfffb92266",
      "to": "0x9fe46736679d2d9a65f0992f2272de9f3c7fa6e0",
      "contractAddress": null,
      "root": "0x0107df49c2b41e3afb2de1911ab721e31b9cd6cf3ac6be3fc195ccf45916b9df"
    }
  ],
  "libraries": [],
  "pending": [],
  "returns": {},
  "timestamp": 1722021596,
  "chain": 31337,
  "commit": "20f080c"
}