{
  "transactions": [
    {
      "hash": "0xa0c76c672418cd95221635cc40f3125bfdaab9f0d8811e7bb94b6d3cf48be2af",
      "transactionType": "CALL",
      "contractName": null,
      "contractAddress": "0x9fe46736679d2d9a65f0992f2272de9f3c7fa6e0",
      "function": "call(address,bytes)",
      "arguments": [
        "0x68B1D87F95878fE05B998F19b66F4baba5De1aed",
        "0xa777d0dc0000000000000000000000000000000000000000000000000000000000000020000000000000000000000000000000000000000000000000000000000000000568656c6c6f000000000000000000000000000000000000000000000000000000"
      ],
      "transaction": {
        "from": "0xf39fd6e51aad88f6f4ce6ab8827279cfffb92266",
        "to": "0x9fe46736679d2d9a65f0992f2272de9f3c7fa6e0",
        "gas": "0xb258",
        "value": "0x0",
        "input": "0x1b8b921d00000000000000000000000068b1d87f95878fe05b998f19b66f4baba5de1aed00000000000000000000000000000000000000000000000000000000000000400000000000000000000000000000000000000000000000000000000000000064a777d0dc0000000000000000000000000000000000000000000000000000000000000020000000000000000000000000000000000000000000000000000000000000000568656c6c6f00000000000000000000000000000000000000000000000000000000000000000000000000000000000000000000000000000000000000",
        "nonce": "0x17",
        "chainId": "0x7a69"
      },
      "additionalContracts": [],
      "isFixedGasLimit": false
    }
  ],
  "receipts": [
    {
      "status": "0x1",
      "cumulativeGasUsed": "0x79f2",
      "logs": [
        {
          "address": "0x9fe46736679d2d9a65f0992f2272de9f3c7fa6e0",
          "topics": [
            "0x2a21062ee9199c2e205622999eeb7c3da73153674f36a0acd3f74fa6af67bde3",
            "0x000000000000000000000000f39fd6e51aad88f6f4ce6ab8827279cfffb92266",
            "0x00000000000000000000000068b1d87f95878fe05b998f19b66f4baba5de1aed"
          ],
          "data": "0x00000000000000000000000000000000000000000000000000000000000000200000000000000000000000000000000000000000000000000000000000000064a777d0dc0000000000000000000000000000000000000000000000000000000000000020000000000000000000000000000000000000000000000000000000000000000568656c6c6f00000000000000000000000000000000000000000000000000000000000000000000000000000000000000000000000000000000000000",
          "blockHash": "0xa909da4d524ad84da2a9e2681b54ac540256f34165bd0ccab183130916e80e06",
          "blockNumber": "0x1d",
          "blockTimestamp": "0x66a3f439",
          "transactionHash": "0xa0c76c672418cd95221635cc40f3125bfdaab9f0d8811e7bb94b6d3cf48be2af",
          "transactionIndex": "0x0",
          "logIndex": "0x0",
          "removed": false
        }
      ],
      "logsBloom": "0x00000000000000000000000000000000000000000000000000000000000000000000000000000000000000000000000000000010000040200000000000000000000000000000000000000000000000000000000000000000000000000000000000000000000000000000000100000080000000000000080000000000000000000000000000000000000040000000000000000000000000000000000000000000000000000000000000000000000000000000000000000000000000000000000000000000000000200000000000000000000000002000000000000000000000000000000000000001000000000000000000000000000000420000000000000000",
      "type": "0x2",
      "transactionHash": "0xa0c76c672418cd95221635cc40f3125bfdaab9f0d8811e7bb94b6d3cf48be2af",
      "transactionIndex": "0x0",
      "blockHash": "0xa909da4d524ad84da2a9e2681b54ac540256f34165bd0ccab183130916e80e06",
      "blockNumber": "0x1d",
      "gasUsed": "0x79f2",
      "effectiveGasPrice": "0x25252c4a4",
      "blobGasPrice": "0x1",
      "from": "0xf39fd6e51aad88f6f4ce6ab8827279cfffb92266",
      "to": "0x9fe46736679d2d9a65f0992f2272de9f3c7fa6e0",
      "contractAddress": null,
      "root": "0xb2d5939c9381821e713fc5862c3e50ab0eb5029e8727e383110790e9034d8906"
    }
  ],
  "libraries": [],
  "pending": [],
  "returns": {},
  "timestamp": 1722020898,
  "chain": 31337,
  "commit": "20f080c"
}