{
  "transactions": [
    {
      "hash": "0x6d6bc97215dde2f51673fce5affe3e053856f2b435bd3d8c2218e33a6d0798f3",
      "transactionType": "CALL",
      "contractName": null,
      "contractAddress": "0x9fe46736679d2d9a65f0992f2272de9f3c7fa6e0",
      "function": "call(address,bytes)",
      "arguments": [
        "0x68B1D87F95878fE05B998F19b66F4baba5De1aed",
        "0xa777d0dc0000000000000000000000000000000000000000000000000000000000000020000000000000000000000000000000000000000000000000000000000000000568656c6c6f000000000000000000000000000000000000000000000000000000"
      ],
      "transaction": {
        "from": "0xf39fd6e51aad88f6f4ce6ab8827279cfffb92266",
        "to": "0x9fe46736679d2d9a65f0992f2272de9f3c7fa6e0",
        "gas": "0xb258",
        "value": "0x0",
        "input": "0x1b8b921d00000000000000000000000068b1d87f95878fe05b998f19b66f4baba5de1aed00000000000000000000000000000000000000000000000000000000000000400000000000000000000000000000000000000000000000000000000000000064a777d0dc0000000000000000000000000000000000000000000000000000000000000020000000000000000000000000000000000000000000000000000000000000000568656c6c6f00000000000000000000000000000000000000000000000000000000000000000000000000000000000000000000000000000000000000",
        "nonce": "0x17",
        "chainId": "0x7a69"
      },
      "additionalContracts": [],
      "isFixedGasLimit": false
    }
  ],
  "receipts": [
    {
      "status": "0x1",
      "cumulativeGasUsed": "0x79f2",
      "logs": [
        {
          "address": "0x9fe46736679d2d9a65f0992f2272de9f3c7fa6e0",
          "topics": [
            "0x2a21062ee9199c2e205622999eeb7c3da73153674f36a0acd3f74fa6af67bde3",
            "0x000000000000000000000000f39fd6e51aad88f6f4ce6ab8827279cfffb92266",
            "0x00000000000000000000000068b1d87f95878fe05b998f19b66f4baba5de1aed"
          ],
          "data": "0x00000000000000000000000000000000000000000000000000000000000000200000000000000000000000000000000000000000000000000000000000000064a777d0dc0000000000000000000000000000000000000000000000000000000000000020000000000000000000000000000000000000000000000000000000000000000568656c6c6f00000000000000000000000000000000000000000000000000000000000000000000000000000000000000000000000000000000000000",
          "blockHash": "0x612ed18ea6526927339f538354899305006572acff91174542e9172a1fc7061c",
          "blockNumber": "0x1d",
          "blockTimestamp": "0x66a3f217",
          "transactionHash": "0x6d6bc97215dde2f51673fce5affe3e053856f2b435bd3d8c2218e33a6d0798f3",
          "transactionIndex": "0x0",
          "logIndex": "0x0",
          "removed": false
        }
      ],
      "logsBloom": "0x00000000000000000000000000000000000000000000000000000000000000000000000000000000000000000000000000000010000040200000000000000000000000000000000000000000000000000000000000000000000000000000000000000000000000000000000100000080000000000000080000000000000000000000000000000000000040000000000000000000000000000000000000000000000000000000000000000000000000000000000000000000000000000000000000000000000000200000000000000000000000002000000000000000000000000000000000000001000000000000000000000000000000420000000000000000",
      "type": "0x2",
      "transactionHash": "0x6d6bc97215dde2f51673fce5affe3e053856f2b435bd3d8c2218e33a6d0798f3",
      "transactionIndex": "0x0",
      "blockHash": "0x612ed18ea6526927339f538354899305006572acff91174542e9172a1fc7061c",
      "blockNumber": "0x1d",
      "gasUsed": "0x79f2",
      "effectiveGasPrice": "0x25252d5d8",
      "blobGasPrice": "0x1",
      "from": "0xf39fd6e51aad88f6f4ce6ab8827279cfffb92266",
      "to": "0x9fe46736679d2d9a65f0992f2272de9f3c7fa6e0",
      "contractAddress": null,
      "root": "0x334d6162f695789b62cf0ed3edbe49aa8fd76a9599ad602c8d8d976c23688ff3"
    }
  ],
  "libraries": [],
  "pending": [],
  "returns": {},
  "timestamp": 1722020353,
  "chain": 31337,
  "commit": "20f080c"
}