{
  "transactions": [
    {
      "hash": "0x1683e6740f0a157ff5ccd3e964cef2340301c146fc76d1be99e2a7da6ed430dd",
      "transactionType": "CALL",
      "contractName": null,
      "contractAddress": "0x9fe46736679d2d9a65f0992f2272de9f3c7fa6e0",
      "function": "call(address,bytes)",
      "arguments": [
        "0x68B1D87F95878fE05B998F19b66F4baba5De1aed",
        "0x68656c6c6f"
      ],
      "transaction": {
        "from": "0xf39fd6e51aad88f6f4ce6ab8827279cfffb92266",
        "to": "0x9fe46736679d2d9a65f0992f2272de9f3c7fa6e0",
        "gas": "0xa1a3",
        "value": "0x0",
        "input": "0x1b8b921d00000000000000000000000068b1d87f95878fe05b998f19b66f4baba5de1aed0000000000000000000000000000000000000000000000000000000000000040000000000000000000000000000000000000000000000000000000000000000568656c6c6f000000000000000000000000000000000000000000000000000000",
        "nonce": "0x17",
        "chainId": "0x7a69"
      },
      "additionalContracts": [],
      "isFixedGasLimit": false
    }
  ],
  "receipts": [
    {
      "status": "0x1",
      "cumulativeGasUsed": "0x7506",
      "logs": [
        {
          "address": "0x9fe46736679d2d9a65f0992f2272de9f3c7fa6e0",
          "topics": [
            "0x2a21062ee9199c2e205622999eeb7c3da73153674f36a0acd3f74fa6af67bde3",
            "0x000000000000000000000000f39fd6e51aad88f6f4ce6ab8827279cfffb92266",
            "0x00000000000000000000000068b1d87f95878fe05b998f19b66f4baba5de1aed"
          ],
          "data": "0x0000000000000000000000000000000000000000000000000000000000000020000000000000000000000000000000000000000000000000000000000000000568656c6c6f000000000000000000000000000000000000000000000000000000",
          "blockHash": "0xde2a75f2d70f7b3ed0c64145d8b4949004e57a9b3afaac8ada4d843964b329fa",
          "blockNumber": "0x1d",
          "blockTimestamp": "0x66a3f58c",
          "transactionHash": "0x1683e6740f0a157ff5ccd3e964cef2340301c146fc76d1be99e2a7da6ed430dd",
          "transactionIndex": "0x0",
          "logIndex": "0x0",
          "removed": false
        }
      ],
      "logsBloom": "0x00000000000000000000000000000000000000000000000000000000000000000000000000000000000000000000000000000010000040200000000000000000000000000000000000000000000000000000000000000000000000000000000000000000000000000000000100000080000000000000080000000000000000000000000000000000000040000000000000000000000000000000000000000000000000000000000000000000000000000000000000000000000000000000000000000000000000200000000000000000000000002000000000000000000000000000000000000001000000000000000000000000000000420000000000000000",
      "type": "0x2",
      "transactionHash": "0x1683e6740f0a157ff5ccd3e964cef2340301c146fc76d1be99e2a7da6ed430dd",
      "transactionIndex": "0x0",
      "blockHash": "0xde2a75f2d70f7b3ed0c64145d8b4949004e57a9b3afaac8ada4d843964b329fa",
      "blockNumber": "0x1d",
      "gasUsed": "0x7506",
      "effectiveGasPrice": "0x25252c4a4",
      "blobGasPrice": "0x1",
      "from": "0xf39fd6e51aad88f6f4ce6ab8827279cfffb92266",
      "to": "0x9fe46736679d2d9a65f0992f2272de9f3c7fa6e0",
      "contractAddress": null,
      "root": "0x3e3850febb0fdc125e0230fc5a89938279ded24f245f33d0a8a2acffabd6b3be"
    }
  ],
  "libraries": [],
  "pending": [],
  "returns": {},
  "timestamp": 1722021237,
  "chain": 31337,
  "commit": "20f080c"
}