{
  "transactions": [
    {
      "hash": "0x9b46f39121deefc254fe921f18ba01f8aa9050bfaecda0cb55edf43797701051",
      "transactionType": "CALL",
      "contractName": null,
      "contractAddress": "0x610178da211fef7d417bc0e6fed39f05609ad788",
      "function": "withdrawAndCall(bytes,uint256,address,bytes)",
      "arguments": [
        "0x0b306bf915c4d645ff596e518faf3f9669b97016",
        "1",
        "0x2ca7d64A7EFE2D62A725E2B35Cf7230D6677FfEe",
        "0xe04d4f970000000000000000000000000000000000000000000000000000000000000060000000000000000000000000000000000000000000000000000000000000002a0000000000000000000000000000000000000000000000000000000000000001000000000000000000000000000000000000000000000000000000000000000648656c6c6f210000000000000000000000000000000000000000000000000000"
      ],
      "transaction": {
        "from": "0xf39fd6e51aad88f6f4ce6ab8827279cfffb92266",
        "to": "0x610178da211fef7d417bc0e6fed39f05609ad788",
        "gas": "0x1e98e",
        "value": "0x0",
        "input": "0x7993c1e0000000000000000000000000000000000000000000000000000000000000008000000000000000000000000000000000000000000000000000000000000000010000000000000000000000002ca7d64a7efe2d62a725e2b35cf7230d6677ffee00000000000000000000000000000000000000000000000000000000000000c000000000000000000000000000000000000000000000000000000000000000140b306bf915c4d645ff596e518faf3f9669b9701600000000000000000000000000000000000000000000000000000000000000000000000000000000000000a4e04d4f970000000000000000000000000000000000000000000000000000000000000060000000000000000000000000000000000000000000000000000000000000002a0000000000000000000000000000000000000000000000000000000000000001000000000000000000000000000000000000000000000000000000000000000648656c6c6f21000000000000000000000000000000000000000000000000000000000000000000000000000000000000000000000000000000000000",
        "nonce": "0x17",
        "chainId": "0x7a69"
      },
      "additionalContracts": [],
      "isFixedGasLimit": false
    }
  ],
  "receipts": [
    {
      "status": "0x1",
      "cumulativeGasUsed": "0x1626f",
      "logs": [
        {
          "address": "0x2ca7d64a7efe2d62a725e2b35cf7230d6677ffee",
          "topics": [
            "0xddf252ad1be2c89b69c2b068fc378daa952ba7f163c4a11628f55a4df523b3ef",
            "0x000000000000000000000000f39fd6e51aad88f6f4ce6ab8827279cfffb92266",
            "0x000000000000000000000000735b14bb79463307aacbed86daf3322b1e6226ab"
          ],
          "data": "0x0000000000000000000000000000000000000000000000000000000000000000",
          "blockHash": "0x108f51c4e5f6bcf40bd7b14c90ada1b5a294974569ce2dd94c87de600aa1f3e2",
          "blockNumber": "0x1d",
          "blockTimestamp": "0x66a3ee4b",
          "transactionHash": "0x9b46f39121deefc254fe921f18ba01f8aa9050bfaecda0cb55edf43797701051",
          "transactionIndex": "0x0",
          "logIndex": "0x0",
          "removed": false
        },
        {
          "address": "0x2ca7d64a7efe2d62a725e2b35cf7230d6677ffee",
          "topics": [
            "0x8c5be1e5ebec7d5bd14f71427d1e84f3dd0314c0f7b2291e5b200ac8c7c3b925",
            "0x000000000000000000000000f39fd6e51aad88f6f4ce6ab8827279cfffb92266",
            "0x000000000000000000000000610178da211fef7d417bc0e6fed39f05609ad788"
          ],
          "data": "0x0000000000000000000000000000000000000000000000056bc75e2d63100000",
          "blockHash": "0x108f51c4e5f6bcf40bd7b14c90ada1b5a294974569ce2dd94c87de600aa1f3e2",
          "blockNumber": "0x1d",
          "blockTimestamp": "0x66a3ee4b",
          "transactionHash": "0x9b46f39121deefc254fe921f18ba01f8aa9050bfaecda0cb55edf43797701051",
          "transactionIndex": "0x0",
          "logIndex": "0x1",
          "removed": false
        },
        {
          "address": "0x2ca7d64a7efe2d62a725e2b35cf7230d6677ffee",
          "topics": [
            "0xddf252ad1be2c89b69c2b068fc378daa952ba7f163c4a11628f55a4df523b3ef",
            "0x000000000000000000000000f39fd6e51aad88f6f4ce6ab8827279cfffb92266",
            "0x000000000000000000000000610178da211fef7d417bc0e6fed39f05609ad788"
          ],
          "data": "0x0000000000000000000000000000000000000000000000000000000000000001",
          "blockHash": "0x108f51c4e5f6bcf40bd7b14c90ada1b5a294974569ce2dd94c87de600aa1f3e2",
          "blockNumber": "0x1d",
          "blockTimestamp": "0x66a3ee4b",
          "transactionHash": "0x9b46f39121deefc254fe921f18ba01f8aa9050bfaecda0cb55edf43797701051",
          "transactionIndex": "0x0",
          "logIndex": "0x2",
          "removed": false
        },
        {
          "address": "0x2ca7d64a7efe2d62a725e2b35cf7230d6677ffee",
          "topics": [
            "0x8c5be1e5ebec7d5bd14f71427d1e84f3dd0314c0f7b2291e5b200ac8c7c3b925",
            "0x000000000000000000000000f39fd6e51aad88f6f4ce6ab8827279cfffb92266",
            "0x000000000000000000000000610178da211fef7d417bc0e6fed39f05609ad788"
          ],
          "data": "0x0000000000000000000000000000000000000000000000056bc75e2d630fffff",
          "blockHash": "0x108f51c4e5f6bcf40bd7b14c90ada1b5a294974569ce2dd94c87de600aa1f3e2",
          "blockNumber": "0x1d",
          "blockTimestamp": "0x66a3ee4b",
          "transactionHash": "0x9b46f39121deefc254fe921f18ba01f8aa9050bfaecda0cb55edf43797701051",
          "transactionIndex": "0x0",
          "logIndex": "0x3",
          "removed": false
        },
        {
          "address": "0x2ca7d64a7efe2d62a725e2b35cf7230d6677ffee",
          "topics": [
            "0xddf252ad1be2c89b69c2b068fc378daa952ba7f163c4a11628f55a4df523b3ef",
            "0x000000000000000000000000610178da211fef7d417bc0e6fed39f05609ad788",
            "0x0000000000000000000000000000000000000000000000000000000000000000"
          ],
          "data": "0x0000000000000000000000000000000000000000000000000000000000000001",
          "blockHash": "0x108f51c4e5f6bcf40bd7b14c90ada1b5a294974569ce2dd94c87de600aa1f3e2",
          "blockNumber": "0x1d",
          "blockTimestamp": "0x66a3ee4b",
          "transactionHash": "0x9b46f39121deefc254fe921f18ba01f8aa9050bfaecda0cb55edf43797701051",
          "transactionIndex": "0x0",
          "logIndex": "0x4",
          "removed": false
        },
        {
          "address": "0x610178da211fef7d417bc0e6fed39f05609ad788",
          "topics": [
            "0x2265ce9ec38ea098a1143406678482665a6e1ccd82ab22d37eea3a78abc57716",
            "0x000000000000000000000000f39fd6e51aad88f6f4ce6ab8827279cfffb92266"
          ],
          "data": "0x0000000000000000000000002ca7d64a7efe2d62a725e2b35cf7230d6677ffee00000000000000000000000000000000000000000000000000000000000000c0000000000000000000000000000000000000000000000000000000000000000100000000000000000000000000000000000000000000000000000000000000000000000000000000000000000000000000000000000000000000000000000000000000000000000000000000000000000000000000000000000000000000010000000000000000000000000000000000000000000000000000000000000000140b306bf915c4d645ff596e518faf3f9669b9701600000000000000000000000000000000000000000000000000000000000000000000000000000000000000a4e04d4f970000000000000000000000000000000000000000000000000000000000000060000000000000000000000000000000000000000000000000000000000000002a0000000000000000000000000000000000000000000000000000000000000001000000000000000000000000000000000000000000000000000000000000000648656c6c6f21000000000000000000000000000000000000000000000000000000000000000000000000000000000000000000000000000000000000",
          "blockHash": "0x108f51c4e5f6bcf40bd7b14c90ada1b5a294974569ce2dd94c87de600aa1f3e2",
          "blockNumber": "0x1d",
          "blockTimestamp": "0x66a3ee4b",
          "transactionHash": "0x9b46f39121deefc254fe921f18ba01f8aa9050bfaecda0cb55edf43797701051",
          "transactionIndex": "0x0",
          "logIndex": "0x5",
          "removed": false
        }
      ],
      "logsBloom": "0x00000010000000000000000000000000000000000000000000000000000000200000004100000400000000000000000080000000000000000000000000200000000000000000000000000008000000000000000000000000040001020000000000000000020000000000000100800800000000000000000040000010000000000000000000000010000000000000000000000000000000000000000000000000020000000000000000020000000000000000000000000000000000000000000000000002000000200000000000000000000000002000000000000000000020000010000000000000000800000000001000000000000000000000000000000000",
      "type": "0x2",
      "transactionHash": "0x9b46f39121deefc254fe921f18ba01f8aa9050bfaecda0cb55edf43797701051",
      "transactionIndex": "0x0",
      "blockHash": "0x108f51c4e5f6bcf40bd7b14c90ada1b5a294974569ce2dd94c87de600aa1f3e2",
      "blockNumber": "0x1d",
      "gasUsed": "0x1626f",
      "effectiveGasPrice": "0x252530692",
      "blobGasPrice": "0x1",
      "from": "0xf39fd6e51aad88f6f4ce6ab8827279cfffb92266",
      "to": "0x610178da211fef7d417bc0e6fed39f05609ad788",
      "contractAddress": null,
      "root": "0x51f3ccad2781afb4c25eeaeda3bb140dce5fe43434d82c93493b22f2b09d348a"
    }
  ],
  "libraries": [],
  "pending": [],
  "returns": {},
  "timestamp": 1722019382,
  "chain": 31337,
  "commit": "20f080c"
}